{
  "_format": "hh-sol-artifact-1",
  "contractName": "CampaignFactory",
  "sourceName": "contracts/crowdfunding.sol",
  "abi": [
    {
      "anonymous": false,
      "inputs": [
        {
          "indexed": true,
          "internalType": "address",
          "name": "creator",
          "type": "address"
        },
        {
          "indexed": false,
          "internalType": "address",
          "name": "campaign",
          "type": "address"
        },
        {
          "indexed": false,
          "internalType": "string",
          "name": "metaURI",
          "type": "string"
        },
        {
          "indexed": false,
          "internalType": "uint256",
          "name": "goal",
          "type": "uint256"
        },
        {
          "indexed": false,
          "internalType": "uint256",
          "name": "deadline",
          "type": "uint256"
        }
      ],
      "name": "CampaignCreated",
      "type": "event"
    },
    {
      "inputs": [],
      "name": "allCampaigns",
      "outputs": [
        {
          "internalType": "address[]",
          "name": "",
          "type": "address[]"
        }
      ],
      "stateMutability": "view",
      "type": "function"
    },
    {
      "inputs": [
        {
          "internalType": "uint256",
          "name": "",
          "type": "uint256"
        }
      ],
      "name": "campaigns",
      "outputs": [
        {
          "internalType": "address",
          "name": "",
          "type": "address"
        }
      ],
      "stateMutability": "view",
      "type": "function"
    },
    {
      "inputs": [
        {
          "internalType": "string",
          "name": "metaURI",
          "type": "string"
        },
        {
          "internalType": "uint256",
          "name": "goal",
          "type": "uint256"
        },
        {
          "internalType": "uint256",
          "name": "deadline",
          "type": "uint256"
        }
      ],
      "name": "createCampaign",
      "outputs": [
        {
          "internalType": "address",
          "name": "",
          "type": "address"
        }
      ],
      "stateMutability": "nonpayable",
      "type": "function"
    }
  ],
  "bytecode": "0x608060405234801561001057600080fd5b5061238e806100206000396000f3fe60806040523480156200001157600080fd5b5060043610620000465760003560e01c8063141961bc146200004b5780633020580b14620000815780637330f3ed14620000b7575b600080fd5b6200006960048036038101906200006391906200030e565b620000d9565b60405162000078919062000385565b60405180910390f35b6200009f600480360381019062000099919062000504565b62000119565b604051620000ae919062000385565b60405180910390f35b620000c162000221565b604051620000d091906200064d565b60405180910390f35b60008181548110620000ea57600080fd5b906000526020600020016000915054906101000a900473ffffffffffffffffffffffffffffffffffffffff1681565b600080338585856040516200012e90620002b1565b6200013d94939291906200070b565b604051809103906000f0801580156200015a573d6000803e3d6000fd5b5090506000819080600181540180825580915050600190039060005260206000200160009091909190916101000a81548173ffffffffffffffffffffffffffffffffffffffff021916908373ffffffffffffffffffffffffffffffffffffffff1602179055503373ffffffffffffffffffffffffffffffffffffffff167f810c1f0481c76c27bfb99d47b443b405e6f4d247fb07302759cb36d58742d07f828787876040516200020e94939291906200070b565b60405180910390a2809150509392505050565b60606000805480602002602001604051908101604052809291908181526020018280548015620002a757602002820191906000526020600020905b8160009054906101000a900473ffffffffffffffffffffffffffffffffffffffff1673ffffffffffffffffffffffffffffffffffffffff16815260200190600101908083116200025c575b5050505050905090565b611bf9806200076083390190565b6000604051905090565b600080fd5b600080fd5b6000819050919050565b620002e881620002d3565b8114620002f457600080fd5b50565b6000813590506200030881620002dd565b92915050565b600060208284031215620003275762000326620002c9565b5b60006200033784828501620002f7565b91505092915050565b600073ffffffffffffffffffffffffffffffffffffffff82169050919050565b60006200036d8262000340565b9050919050565b6200037f8162000360565b82525050565b60006020820190506200039c600083018462000374565b92915050565b600080fd5b600080fd5b6000601f19601f8301169050919050565b7f4e487b7100000000000000000000000000000000000000000000000000000000600052604160045260246000fd5b620003f782620003ac565b810181811067ffffffffffffffff82111715620004195762000418620003bd565b5b80604052505050565b60006200042e620002bf565b90506200043c8282620003ec565b919050565b600067ffffffffffffffff8211156200045f576200045e620003bd565b5b6200046a82620003ac565b9050602081019050919050565b82818337600083830152505050565b60006200049d620004978462000441565b62000422565b905082815260208101848484011115620004bc57620004bb620003a7565b5b620004c984828562000477565b509392505050565b600082601f830112620004e957620004e8620003a2565b5b8135620004fb84826020860162000486565b91505092915050565b60008060006060848603121562000520576200051f620002c9565b5b600084013567ffffffffffffffff811115620005415762000540620002ce565b5b6200054f86828701620004d1565b93505060206200056286828701620002f7565b92505060406200057586828701620002f7565b9150509250925092565b600081519050919050565b600082825260208201905092915050565b6000819050602082019050919050565b620005b68162000360565b82525050565b6000620005ca8383620005ab565b60208301905092915050565b6000602082019050919050565b6000620005f0826200057f565b620005fc81856200058a565b935062000609836200059b565b8060005b8381101562000640578151620006248882620005bc565b97506200063183620005d6565b9250506001810190506200060d565b5085935050505092915050565b60006020820190508181036000830152620006698184620005e3565b905092915050565b600081519050919050565b600082825260208201905092915050565b60005b83811015620006ad57808201518184015260208101905062000690565b60008484015250505050565b6000620006c68262000671565b620006d281856200067c565b9350620006e48185602086016200068d565b620006ef81620003ac565b840191505092915050565b6200070581620002d3565b82525050565b600060808201905062000722600083018762000374565b8181036020830152620007368186620006b9565b9050620007476040830185620006fa565b620007566060830184620006fa565b9594505050505056fe60806040526001600660016101000a81548160ff0219169083151502179055503480156200002c57600080fd5b5060405162001bf938038062001bf9833981810160405281019062000052919062000383565b600160008190555060008211620000a0576040517f08c379a0000000000000000000000000000000000000000000000000000000008152600401620000979062000475565b60405180910390fd5b428111620000e5576040517f08c379a0000000000000000000000000000000000000000000000000000000008152600401620000dc90620004e7565b60405180910390fd5b83600160006101000a81548173ffffffffffffffffffffffffffffffffffffffff021916908373ffffffffffffffffffffffffffffffffffffffff16021790555082600290816200013791906200074a565b5081600381905550806004819055505050505062000831565b6000604051905090565b600080fd5b600080fd5b600073ffffffffffffffffffffffffffffffffffffffff82169050919050565b6000620001918262000164565b9050919050565b620001a38162000184565b8114620001af57600080fd5b50565b600081519050620001c38162000198565b92915050565b600080fd5b600080fd5b6000601f19601f8301169050919050565b7f4e487b7100000000000000000000000000000000000000000000000000000000600052604160045260246000fd5b6200021e82620001d3565b810181811067ffffffffffffffff8211171562000240576200023f620001e4565b5b80604052505050565b60006200025562000150565b905062000263828262000213565b919050565b600067ffffffffffffffff821115620002865762000285620001e4565b5b6200029182620001d3565b9050602081019050919050565b60005b83811015620002be578082015181840152602081019050620002a1565b60008484015250505050565b6000620002e1620002db8462000268565b62000249565b9050828152602081018484840111156200030057620002ff620001ce565b5b6200030d8482856200029e565b509392505050565b600082601f8301126200032d576200032c620001c9565b5b81516200033f848260208601620002ca565b91505092915050565b6000819050919050565b6200035d8162000348565b81146200036957600080fd5b50565b6000815190506200037d8162000352565b92915050565b60008060008060808587031215620003a0576200039f6200015a565b5b6000620003b087828801620001b2565b945050602085015167ffffffffffffffff811115620003d457620003d36200015f565b5b620003e28782880162000315565b9350506040620003f5878288016200036c565b925050606062000408878288016200036c565b91505092959194509250565b600082825260208201905092915050565b7f476f616c206d757374206265203e203000000000000000000000000000000000600082015250565b60006200045d60108362000414565b91506200046a8262000425565b602082019050919050565b6000602082019050818103600083015262000490816200044e565b9050919050565b7f446561646c696e65206d75737420626520696e20746865206675747572650000600082015250565b6000620004cf601e8362000414565b9150620004dc8262000497565b602082019050919050565b600060208201905081810360008301526200050281620004c0565b9050919050565b600081519050919050565b7f4e487b7100000000000000000000000000000000000000000000000000000000600052602260045260246000fd5b600060028204905060018216806200055c57607f821691505b60208210810362000572576200057162000514565b5b50919050565b60008190508160005260206000209050919050565b60006020601f8301049050919050565b600082821b905092915050565b600060088302620005dc7fffffffffffffffffffffffffffffffffffffffffffffffffffffffffffffffff826200059d565b620005e886836200059d565b95508019841693508086168417925050509392505050565b6000819050919050565b60006200062b620006256200061f8462000348565b62000600565b62000348565b9050919050565b6000819050919050565b62000647836200060a565b6200065f620006568262000632565b848454620005aa565b825550505050565b600090565b6200067662000667565b620006838184846200063c565b505050565b5b81811015620006ab576200069f6000826200066c565b60018101905062000689565b5050565b601f821115620006fa57620006c48162000578565b620006cf846200058d565b81016020851015620006df578190505b620006f7620006ee856200058d565b83018262000688565b50505b505050565b600082821c905092915050565b60006200071f60001984600802620006ff565b1980831691505092915050565b60006200073a83836200070c565b9150826002028217905092915050565b620007558262000509565b67ffffffffffffffff811115620007715762000770620001e4565b5b6200077d825462000543565b6200078a828285620006af565b600060209050601f831160018114620007c25760008415620007ad578287015190505b620007b985826200072c565b86555062000829565b601f198416620007d28662000578565b60005b82811015620007fc57848901518255600182019150602085019450602081019050620007d5565b868310156200081c578489015162000818601f8916826200070c565b8355505b6001600288020188555050505b505050505050565b6113b880620008416000396000f3fe6080604052600436106100a75760003560e01c806342e94c901161006457806342e94c901461019a578063590e1ae3146101d757806367605787146101ee578063c80ec52214610219578063d7bb99ba14610244578063ea8a1af01461024e576100a7565b8063023f4147146100ac57806302d05d3f146100d757806302fb0c5e1461010257806329dcb0cf1461012d5780633ccfd60b14610158578063401938831461016f575b600080fd5b3480156100b857600080fd5b506100c1610265565b6040516100ce9190610bac565b60405180910390f35b3480156100e357600080fd5b506100ec61026b565b6040516100f99190610c08565b60405180910390f35b34801561010e57600080fd5b50610117610291565b6040516101249190610c3e565b60405180910390f35b34801561013957600080fd5b506101426102a4565b60405161014f9190610bac565b60405180910390f35b34801561016457600080fd5b5061016d6102aa565b005b34801561017b57600080fd5b50610184610588565b6040516101919190610bac565b60405180910390f35b3480156101a657600080fd5b506101c160048036038101906101bc9190610c8a565b61058e565b6040516101ce9190610bac565b60405180910390f35b3480156101e357600080fd5b506101ec6105a6565b005b3480156101fa57600080fd5b5061020361080b565b6040516102109190610d47565b60405180910390f35b34801561022557600080fd5b5061022e610899565b60405161023b9190610c3e565b60405180910390f35b61024c6108ac565b005b34801561025a57600080fd5b50610263610a02565b005b60055481565b600160009054906101000a900473ffffffffffffffffffffffffffffffffffffffff1681565b600660019054906101000a900460ff1681565b60045481565b600160009054906101000a900473ffffffffffffffffffffffffffffffffffffffff1673ffffffffffffffffffffffffffffffffffffffff163373ffffffffffffffffffffffffffffffffffffffff161461033a576040517f08c379a000000000000000000000000000000000000000000000000000000000815260040161033190610db5565b60405180910390fd5b610342610b43565b600454421015610387576040517f08c379a000000000000000000000000000000000000000000000000000000000815260040161037e90610e21565b60405180910390fd5b60035460055410156103ce576040517f08c379a00000000000000000000000000000000000000000000000000000000081526004016103c590610e8d565b60405180910390fd5b600660009054906101000a900460ff161561041e576040517f08c379a000000000000000000000000000000000000000000000000000000000815260040161041590610ef9565b60405180910390fd5b6001600660006101000a81548160ff02191690831515021790555060004790506000600160009054906101000a900473ffffffffffffffffffffffffffffffffffffffff1673ffffffffffffffffffffffffffffffffffffffff168260405161048690610f4a565b60006040518083038185875af1925050503d80600081146104c3576040519150601f19603f3d011682016040523d82523d6000602084013e6104c8565b606091505b505090508061050c576040517f08c379a000000000000000000000000000000000000000000000000000000000815260040161050390610fab565b60405180910390fd5b600160009054906101000a900473ffffffffffffffffffffffffffffffffffffffff1673ffffffffffffffffffffffffffffffffffffffff167f7084f5476618d8e60b11ef0d7d3f06914655adb8793e28ff7f018d4c76d505d5836040516105749190610bac565b60405180910390a25050610586610b89565b565b60035481565b60076020528060005260406000206000915090505481565b6105ae610b43565b6004544210156105f3576040517f08c379a00000000000000000000000000000000000000000000000000000000081526004016105ea90610e21565b60405180910390fd5b60035460055410610639576040517f08c379a000000000000000000000000000000000000000000000000000000000815260040161063090611017565b60405180910390fd5b6000600760003373ffffffffffffffffffffffffffffffffffffffff1673ffffffffffffffffffffffffffffffffffffffff168152602001908152602001600020549050600081116106c0576040517f08c379a00000000000000000000000000000000000000000000000000000000081526004016106b790611083565b60405180910390fd5b6000600760003373ffffffffffffffffffffffffffffffffffffffff1673ffffffffffffffffffffffffffffffffffffffff1681526020019081526020016000208190555060003373ffffffffffffffffffffffffffffffffffffffff168260405161072b90610f4a565b60006040518083038185875af1925050503d8060008114610768576040519150601f19603f3d011682016040523d82523d6000602084013e61076d565b606091505b50509050806107b1576040517f08c379a00000000000000000000000000000000000000000000000000000000081526004016107a8906110ef565b60405180910390fd5b3373ffffffffffffffffffffffffffffffffffffffff167fd7dee2702d63ad89917b6a4da9981c90c4d24f8c2bdfd64c604ecae57d8d0651836040516107f79190610bac565b60405180910390a25050610809610b89565b565b600280546108189061113e565b80601f01602080910402602001604051908101604052809291908181526020018280546108449061113e565b80156108915780601f1061086657610100808354040283529160200191610891565b820191906000526020600020905b81548152906001019060200180831161087457829003601f168201915b505050505081565b600660009054906101000a900460ff1681565b6108b4610b43565b60045442106108f8576040517f08c379a00000000000000000000000000000000000000000000000000000000081526004016108ef906111bb565b60405180910390fd5b6000341161093b576040517f08c379a000000000000000000000000000000000000000000000000000000000815260040161093290611227565b60405180910390fd5b34600760003373ffffffffffffffffffffffffffffffffffffffff1673ffffffffffffffffffffffffffffffffffffffff168152602001908152602001600020600082825461098a9190611276565b9250508190555034600560008282546109a39190611276565b925050819055503373ffffffffffffffffffffffffffffffffffffffff167f62722348256371b5147820d6cad90c40fd2da1ccee18c3ed52c0bca5a61dbbab346040516109f09190610bac565b60405180910390a2610a00610b89565b565b600160009054906101000a900473ffffffffffffffffffffffffffffffffffffffff1673ffffffffffffffffffffffffffffffffffffffff163373ffffffffffffffffffffffffffffffffffffffff1614610a92576040517f08c379a0000000000000000000000000000000000000000000000000000000008152600401610a8990610db5565b60405180910390fd5b600660019054906101000a900460ff16610ae1576040517f08c379a0000000000000000000000000000000000000000000000000000000008152600401610ad8906112f6565b60405180910390fd5b600060055414610b26576040517f08c379a0000000000000000000000000000000000000000000000000000000008152600401610b1d90611362565b60405180910390fd5b6000600660016101000a81548160ff021916908315150217905550565b600260005403610b7f576040517f3ee5aeb500000000000000000000000000000000000000000000000000000000815260040160405180910390fd5b6002600081905550565b6001600081905550565b6000819050919050565b610ba681610b93565b82525050565b6000602082019050610bc16000830184610b9d565b92915050565b600073ffffffffffffffffffffffffffffffffffffffff82169050919050565b6000610bf282610bc7565b9050919050565b610c0281610be7565b82525050565b6000602082019050610c1d6000830184610bf9565b92915050565b60008115159050919050565b610c3881610c23565b82525050565b6000602082019050610c536000830184610c2f565b92915050565b600080fd5b610c6781610be7565b8114610c7257600080fd5b50565b600081359050610c8481610c5e565b92915050565b600060208284031215610ca057610c9f610c59565b5b6000610cae84828501610c75565b91505092915050565b600081519050919050565b600082825260208201905092915050565b60005b83811015610cf1578082015181840152602081019050610cd6565b60008484015250505050565b6000601f19601f8301169050919050565b6000610d1982610cb7565b610d238185610cc2565b9350610d33818560208601610cd3565b610d3c81610cfd565b840191505092915050565b60006020820190508181036000830152610d618184610d0e565b905092915050565b7f4e6f742063726561746f72000000000000000000000000000000000000000000600082015250565b6000610d9f600b83610cc2565b9150610daa82610d69565b602082019050919050565b60006020820190508181036000830152610dce81610d92565b9050919050565b7f4e6f7420656e6465642079657400000000000000000000000000000000000000600082015250565b6000610e0b600d83610cc2565b9150610e1682610dd5565b602082019050919050565b60006020820190508181036000830152610e3a81610dfe565b9050919050565b7f476f616c206e6f74206d65740000000000000000000000000000000000000000600082015250565b6000610e77600c83610cc2565b9150610e8282610e41565b602082019050919050565b60006020820190508181036000830152610ea681610e6a565b9050919050565b7f416c72656164792077697468647261776e000000000000000000000000000000600082015250565b6000610ee3601183610cc2565b9150610eee82610ead565b602082019050919050565b60006020820190508181036000830152610f1281610ed6565b9050919050565b600081905092915050565b50565b6000610f34600083610f19565b9150610f3f82610f24565b600082019050919050565b6000610f5582610f27565b9150819050919050565b7f5769746864726177206661696c65640000000000000000000000000000000000600082015250565b6000610f95600f83610cc2565b9150610fa082610f5f565b602082019050919050565b60006020820190508181036000830152610fc481610f88565b9050919050565b7f476f616c206d6574000000000000000000000000000000000000000000000000600082015250565b6000611001600883610cc2565b915061100c82610fcb565b602082019050919050565b6000602082019050818103600083015261103081610ff4565b9050919050565b7f4e6f7468696e6720746f20726566756e64000000000000000000000000000000600082015250565b600061106d601183610cc2565b915061107882611037565b602082019050919050565b6000602082019050818103600083015261109c81611060565b9050919050565b7f526566756e64206661696c656400000000000000000000000000000000000000600082015250565b60006110d9600d83610cc2565b91506110e4826110a3565b602082019050919050565b60006020820190508181036000830152611108816110cc565b9050919050565b7f4e487b7100000000000000000000000000000000000000000000000000000000600052602260045260246000fd5b6000600282049050600182168061115657607f821691505b6020821081036111695761116861110f565b5b50919050565b7f43616d706169676e20656e646564000000000000000000000000000000000000600082015250565b60006111a5600e83610cc2565b91506111b08261116f565b602082019050919050565b600060208201905081810360008301526111d481611198565b9050919050565b7f4e65656420455448000000000000000000000000000000000000000000000000600082015250565b6000611211600883610cc2565b915061121c826111db565b602082019050919050565b6000602082019050818103600083015261124081611204565b9050919050565b7f4e487b7100000000000000000000000000000000000000000000000000000000600052601160045260246000fd5b600061128182610b93565b915061128c83610b93565b92508282019050808211156112a4576112a3611247565b5b92915050565b7f43616d706169676e20697320616c726561647920696e61637469766500000000600082015250565b60006112e0601c83610cc2565b91506112eb826112aa565b602082019050919050565b6000602082019050818103600083015261130f816112d3565b9050919050565b7f43616e6e6f742063616e63656c207769746820636f6e747269627574696f6e73600082015250565b600061134c602083610cc2565b915061135782611316565b602082019050919050565b6000602082019050818103600083015261137b8161133f565b905091905056fea2646970667358221220bf39f0f42a803fcb0d40b2880316a45cc3339dc388ee762a4d8a2ea484f15b0d64736f6c63430008140033a26469706673582212203426d0ed11269fdddebb12c0702a6badbed7651b4227705208d6a8bac807931664736f6c63430008140033",
  "linkReferences": {},
  "deployedLinkReferences": {}
}