{
  "_format": "hh-sol-artifact-1",
  "contractName": "Campaign",
  "sourceName": "contracts/crowdfunding.sol",
  "abi": [
    {
      "inputs": [
        {
          "internalType": "address",
          "name": "_creator",
          "type": "address"
        },
        {
          "internalType": "string",
          "name": "_metaURI",
          "type": "string"
        },
        {
          "internalType": "uint256",
          "name": "_goal",
          "type": "uint256"
        },
        {
          "internalType": "uint256",
          "name": "_deadline",
          "type": "uint256"
        }
      ],
      "stateMutability": "nonpayable",
      "type": "constructor"
    },
    {
      "inputs": [],
      "name": "ReentrancyGuardReentrantCall",
      "type": "error"
    },
    {
      "anonymous": false,
      "inputs": [
        {
          "indexed": true,
          "internalType": "address",
          "name": "from",
          "type": "address"
        },
        {
          "indexed": false,
          "internalType": "uint256",
          "name": "amount",
          "type": "uint256"
        }
      ],
      "name": "Contributed",
      "type": "event"
    },
    {
      "anonymous": false,
      "inputs": [
        {
          "indexed": true,
          "internalType": "address",
          "name": "to",
          "type": "address"
        },
        {
          "indexed": false,
          "internalType": "uint256",
          "name": "amount",
          "type": "uint256"
        }
      ],
      "name": "Refunded",
      "type": "event"
    },
    {
      "anonymous": false,
      "inputs": [
        {
          "indexed": true,
          "internalType": "address",
          "name": "to",
          "type": "address"
        },
        {
          "indexed": false,
          "internalType": "uint256",
          "name": "amount",
          "type": "uint256"
        }
      ],
      "name": "Withdrawn",
      "type": "event"
    },
    {
      "inputs": [],
      "name": "contribute",
      "outputs": [],
      "stateMutability": "payable",
      "type": "function"
    },
    {
      "inputs": [
        {
          "internalType": "address",
          "name": "",
          "type": "address"
        }
      ],
      "name": "contributions",
      "outputs": [
        {
          "internalType": "uint256",
          "name": "",
          "type": "uint256"
        }
      ],
      "stateMutability": "view",
      "type": "function"
    },
    {
      "inputs": [],
      "name": "creator",
      "outputs": [
        {
          "internalType": "address",
          "name": "",
          "type": "address"
        }
      ],
      "stateMutability": "view",
      "type": "function"
    },
    {
      "inputs": [],
      "name": "deadline",
      "outputs": [
        {
          "internalType": "uint256",
          "name": "",
          "type": "uint256"
        }
      ],
      "stateMutability": "view",
      "type": "function"
    },
    {
      "inputs": [],
      "name": "goal",
      "outputs": [
        {
          "internalType": "uint256",
          "name": "",
          "type": "uint256"
        }
      ],
      "stateMutability": "view",
      "type": "function"
    },
    {
      "inputs": [],
      "name": "metaURI",
      "outputs": [
        {
          "internalType": "string",
          "name": "",
          "type": "string"
        }
      ],
      "stateMutability": "view",
      "type": "function"
    },
    {
      "inputs": [],
      "name": "refund",
      "outputs": [],
      "stateMutability": "nonpayable",
      "type": "function"
    },
    {
      "inputs": [],
      "name": "totalContributed",
      "outputs": [
        {
          "internalType": "uint256",
          "name": "",
          "type": "uint256"
        }
      ],
      "stateMutability": "view",
      "type": "function"
    },
    {
      "inputs": [],
      "name": "withdraw",
      "outputs": [],
      "stateMutability": "nonpayable",
      "type": "function"
    },
    {
      "inputs": [],
      "name": "withdrawn",
      "outputs": [
        {
          "internalType": "bool",
          "name": "",
          "type": "bool"
        }
      ],
      "stateMutability": "view",
      "type": "function"
    }
  ],
  "bytecode": "0x60806040523480156200001157600080fd5b506040516200195a3803806200195a833981810160405281019062000037919062000368565b60016000819055506000821162000085576040517f08c379a00000000000000000000000000000000000000000000000000000000081526004016200007c906200045a565b60405180910390fd5b428111620000ca576040517f08c379a0000000000000000000000000000000000000000000000000000000008152600401620000c190620004cc565b60405180910390fd5b83600160006101000a81548173ffffffffffffffffffffffffffffffffffffffff021916908373ffffffffffffffffffffffffffffffffffffffff16021790555082600290816200011c91906200072f565b5081600381905550806004819055505050505062000816565b6000604051905090565b600080fd5b600080fd5b600073ffffffffffffffffffffffffffffffffffffffff82169050919050565b6000620001768262000149565b9050919050565b620001888162000169565b81146200019457600080fd5b50565b600081519050620001a8816200017d565b92915050565b600080fd5b600080fd5b6000601f19601f8301169050919050565b7f4e487b7100000000000000000000000000000000000000000000000000000000600052604160045260246000fd5b6200020382620001b8565b810181811067ffffffffffffffff82111715620002255762000224620001c9565b5b80604052505050565b60006200023a62000135565b9050620002488282620001f8565b919050565b600067ffffffffffffffff8211156200026b576200026a620001c9565b5b6200027682620001b8565b9050602081019050919050565b60005b83811015620002a357808201518184015260208101905062000286565b60008484015250505050565b6000620002c6620002c0846200024d565b6200022e565b905082815260208101848484011115620002e557620002e4620001b3565b5b620002f284828562000283565b509392505050565b600082601f830112620003125762000311620001ae565b5b815162000324848260208601620002af565b91505092915050565b6000819050919050565b62000342816200032d565b81146200034e57600080fd5b50565b600081519050620003628162000337565b92915050565b600080600080608085870312156200038557620003846200013f565b5b6000620003958782880162000197565b945050602085015167ffffffffffffffff811115620003b957620003b862000144565b5b620003c787828801620002fa565b9350506040620003da8782880162000351565b9250506060620003ed8782880162000351565b91505092959194509250565b600082825260208201905092915050565b7f476f616c206d757374206265203e203000000000000000000000000000000000600082015250565b600062000442601083620003f9565b91506200044f826200040a565b602082019050919050565b60006020820190508181036000830152620004758162000433565b9050919050565b7f446561646c696e65206d75737420626520696e20746865206675747572650000600082015250565b6000620004b4601e83620003f9565b9150620004c1826200047c565b602082019050919050565b60006020820190508181036000830152620004e781620004a5565b9050919050565b600081519050919050565b7f4e487b7100000000000000000000000000000000000000000000000000000000600052602260045260246000fd5b600060028204905060018216806200054157607f821691505b602082108103620005575762000556620004f9565b5b50919050565b60008190508160005260206000209050919050565b60006020601f8301049050919050565b600082821b905092915050565b600060088302620005c17fffffffffffffffffffffffffffffffffffffffffffffffffffffffffffffffff8262000582565b620005cd868362000582565b95508019841693508086168417925050509392505050565b6000819050919050565b6000620006106200060a62000604846200032d565b620005e5565b6200032d565b9050919050565b6000819050919050565b6200062c83620005ef565b620006446200063b8262000617565b8484546200058f565b825550505050565b600090565b6200065b6200064c565b6200066881848462000621565b505050565b5b8181101562000690576200068460008262000651565b6001810190506200066e565b5050565b601f821115620006df57620006a9816200055d565b620006b48462000572565b81016020851015620006c4578190505b620006dc620006d38562000572565b8301826200066d565b50505b505050565b600082821c905092915050565b60006200070460001984600802620006e4565b1980831691505092915050565b60006200071f8383620006f1565b9150826002028217905092915050565b6200073a82620004ee565b67ffffffffffffffff811115620007565762000755620001c9565b5b62000762825462000528565b6200076f82828562000694565b600060209050601f831160018114620007a7576000841562000792578287015190505b6200079e858262000711565b8655506200080e565b601f198416620007b7866200055d565b60005b82811015620007e157848901518255600182019150602085019450602081019050620007ba565b86831015620008015784890151620007fd601f891682620006f1565b8355505b6001600288020188555050505b505050505050565b61113480620008266000396000f3fe6080604052600436106100915760003560e01c806342e94c901161005957806342e94c9014610159578063590e1ae31461019657806367605787146101ad578063c80ec522146101d8578063d7bb99ba1461020357610091565b8063023f41471461009657806302d05d3f146100c157806329dcb0cf146100ec5780633ccfd60b14610117578063401938831461012e575b600080fd5b3480156100a257600080fd5b506100ab61020d565b6040516100b89190610a00565b60405180910390f35b3480156100cd57600080fd5b506100d6610213565b6040516100e39190610a5c565b60405180910390f35b3480156100f857600080fd5b50610101610239565b60405161010e9190610a00565b60405180910390f35b34801561012357600080fd5b5061012c61023f565b005b34801561013a57600080fd5b5061014361051d565b6040516101509190610a00565b60405180910390f35b34801561016557600080fd5b50610180600480360381019061017b9190610aa8565b610523565b60405161018d9190610a00565b60405180910390f35b3480156101a257600080fd5b506101ab61053b565b005b3480156101b957600080fd5b506101c26107a0565b6040516101cf9190610b65565b60405180910390f35b3480156101e457600080fd5b506101ed61082e565b6040516101fa9190610ba2565b60405180910390f35b61020b610841565b005b60055481565b600160009054906101000a900473ffffffffffffffffffffffffffffffffffffffff1681565b60045481565b600160009054906101000a900473ffffffffffffffffffffffffffffffffffffffff1673ffffffffffffffffffffffffffffffffffffffff163373ffffffffffffffffffffffffffffffffffffffff16146102cf576040517f08c379a00000000000000000000000000000000000000000000000000000000081526004016102c690610c09565b60405180910390fd5b6102d7610997565b60045442101561031c576040517f08c379a000000000000000000000000000000000000000000000000000000000815260040161031390610c75565b60405180910390fd5b6003546005541015610363576040517f08c379a000000000000000000000000000000000000000000000000000000000815260040161035a90610ce1565b60405180910390fd5b600660009054906101000a900460ff16156103b3576040517f08c379a00000000000000000000000000000000000000000000000000000000081526004016103aa90610d4d565b60405180910390fd5b6001600660006101000a81548160ff02191690831515021790555060004790506000600160009054906101000a900473ffffffffffffffffffffffffffffffffffffffff1673ffffffffffffffffffffffffffffffffffffffff168260405161041b90610d9e565b60006040518083038185875af1925050503d8060008114610458576040519150601f19603f3d011682016040523d82523d6000602084013e61045d565b606091505b50509050806104a1576040517f08c379a000000000000000000000000000000000000000000000000000000000815260040161049890610dff565b60405180910390fd5b600160009054906101000a900473ffffffffffffffffffffffffffffffffffffffff1673ffffffffffffffffffffffffffffffffffffffff167f7084f5476618d8e60b11ef0d7d3f06914655adb8793e28ff7f018d4c76d505d5836040516105099190610a00565b60405180910390a2505061051b6109dd565b565b60035481565b60076020528060005260406000206000915090505481565b610543610997565b600454421015610588576040517f08c379a000000000000000000000000000000000000000000000000000000000815260040161057f90610c75565b60405180910390fd5b600354600554106105ce576040517f08c379a00000000000000000000000000000000000000000000000000000000081526004016105c590610e6b565b60405180910390fd5b6000600760003373ffffffffffffffffffffffffffffffffffffffff1673ffffffffffffffffffffffffffffffffffffffff16815260200190815260200160002054905060008111610655576040517f08c379a000000000000000000000000000000000000000000000000000000000815260040161064c90610ed7565b60405180910390fd5b6000600760003373ffffffffffffffffffffffffffffffffffffffff1673ffffffffffffffffffffffffffffffffffffffff1681526020019081526020016000208190555060003373ffffffffffffffffffffffffffffffffffffffff16826040516106c090610d9e565b60006040518083038185875af1925050503d80600081146106fd576040519150601f19603f3d011682016040523d82523d6000602084013e610702565b606091505b5050905080610746576040517f08c379a000000000000000000000000000000000000000000000000000000000815260040161073d90610f43565b60405180910390fd5b3373ffffffffffffffffffffffffffffffffffffffff167fd7dee2702d63ad89917b6a4da9981c90c4d24f8c2bdfd64c604ecae57d8d06518360405161078c9190610a00565b60405180910390a2505061079e6109dd565b565b600280546107ad90610f92565b80601f01602080910402602001604051908101604052809291908181526020018280546107d990610f92565b80156108265780601f106107fb57610100808354040283529160200191610826565b820191906000526020600020905b81548152906001019060200180831161080957829003601f168201915b505050505081565b600660009054906101000a900460ff1681565b610849610997565b600454421061088d576040517f08c379a00000000000000000000000000000000000000000000000000000000081526004016108849061100f565b60405180910390fd5b600034116108d0576040517f08c379a00000000000000000000000000000000000000000000000000000000081526004016108c79061107b565b60405180910390fd5b34600760003373ffffffffffffffffffffffffffffffffffffffff1673ffffffffffffffffffffffffffffffffffffffff168152602001908152602001600020600082825461091f91906110ca565b92505081905550346005600082825461093891906110ca565b925050819055503373ffffffffffffffffffffffffffffffffffffffff167f62722348256371b5147820d6cad90c40fd2da1ccee18c3ed52c0bca5a61dbbab346040516109859190610a00565b60405180910390a26109956109dd565b565b6002600054036109d3576040517f3ee5aeb500000000000000000000000000000000000000000000000000000000815260040160405180910390fd5b6002600081905550565b6001600081905550565b6000819050919050565b6109fa816109e7565b82525050565b6000602082019050610a1560008301846109f1565b92915050565b600073ffffffffffffffffffffffffffffffffffffffff82169050919050565b6000610a4682610a1b565b9050919050565b610a5681610a3b565b82525050565b6000602082019050610a716000830184610a4d565b92915050565b600080fd5b610a8581610a3b565b8114610a9057600080fd5b50565b600081359050610aa281610a7c565b92915050565b600060208284031215610abe57610abd610a77565b5b6000610acc84828501610a93565b91505092915050565b600081519050919050565b600082825260208201905092915050565b60005b83811015610b0f578082015181840152602081019050610af4565b60008484015250505050565b6000601f19601f8301169050919050565b6000610b3782610ad5565b610b418185610ae0565b9350610b51818560208601610af1565b610b5a81610b1b565b840191505092915050565b60006020820190508181036000830152610b7f8184610b2c565b905092915050565b60008115159050919050565b610b9c81610b87565b82525050565b6000602082019050610bb76000830184610b93565b92915050565b7f4e6f742063726561746f72000000000000000000000000000000000000000000600082015250565b6000610bf3600b83610ae0565b9150610bfe82610bbd565b602082019050919050565b60006020820190508181036000830152610c2281610be6565b9050919050565b7f4e6f7420656e6465642079657400000000000000000000000000000000000000600082015250565b6000610c5f600d83610ae0565b9150610c6a82610c29565b602082019050919050565b60006020820190508181036000830152610c8e81610c52565b9050919050565b7f476f616c206e6f74206d65740000000000000000000000000000000000000000600082015250565b6000610ccb600c83610ae0565b9150610cd682610c95565b602082019050919050565b60006020820190508181036000830152610cfa81610cbe565b9050919050565b7f416c72656164792077697468647261776e000000000000000000000000000000600082015250565b6000610d37601183610ae0565b9150610d4282610d01565b602082019050919050565b60006020820190508181036000830152610d6681610d2a565b9050919050565b600081905092915050565b50565b6000610d88600083610d6d565b9150610d9382610d78565b600082019050919050565b6000610da982610d7b565b9150819050919050565b7f5769746864726177206661696c65640000000000000000000000000000000000600082015250565b6000610de9600f83610ae0565b9150610df482610db3565b602082019050919050565b60006020820190508181036000830152610e1881610ddc565b9050919050565b7f476f616c206d6574000000000000000000000000000000000000000000000000600082015250565b6000610e55600883610ae0565b9150610e6082610e1f565b602082019050919050565b60006020820190508181036000830152610e8481610e48565b9050919050565b7f4e6f7468696e6720746f20726566756e64000000000000000000000000000000600082015250565b6000610ec1601183610ae0565b9150610ecc82610e8b565b602082019050919050565b60006020820190508181036000830152610ef081610eb4565b9050919050565b7f526566756e64206661696c656400000000000000000000000000000000000000600082015250565b6000610f2d600d83610ae0565b9150610f3882610ef7565b602082019050919050565b60006020820190508181036000830152610f5c81610f20565b9050919050565b7f4e487b7100000000000000000000000000000000000000000000000000000000600052602260045260246000fd5b60006002820490506001821680610faa57607f821691505b602082108103610fbd57610fbc610f63565b5b50919050565b7f43616d706169676e20656e646564000000000000000000000000000000000000600082015250565b6000610ff9600e83610ae0565b915061100482610fc3565b602082019050919050565b6000602082019050818103600083015261102881610fec565b9050919050565b7f4e65656420455448000000000000000000000000000000000000000000000000600082015250565b6000611065600883610ae0565b91506110708261102f565b602082019050919050565b6000602082019050818103600083015261109481611058565b9050919050565b7f4e487b7100000000000000000000000000000000000000000000000000000000600052601160045260246000fd5b60006110d5826109e7565b91506110e0836109e7565b92508282019050808211156110f8576110f761109b565b5b9291505056fea2646970667358221220d2a76df51e0cc6b5af51ddb200c7bd9fc2e52ce1e63ed555c13230d8e1ec8bf064736f6c63430008140033",
  "linkReferences": {},
  "deployedLinkReferences": {}
}